:020000040800F2
:10000000D015002061020008ED430008E543000818
:10001000E9430008D10400087D52000800000000F8
:100020000000000000000000000000004147000840
:10003000ED04000800000000F143000845470008F7
:100040007B0200087B0200087B0200087B0200089C
:100050007B0200087B0200087B0200087B0200088C
:100060007B0200087B0200087B0200087B0200087C
:100070007B0200087B0200087B0200087B0200086C
:10008000D5040008E1040008B50400087B0200085C
:100090007B0200087B0200087B0200087B0200084C
:1000A0007B0200087B0200087B0200087B0200083C
:1000B0007D4800087B0200087B0200087B020008E4
:1000C0007B0200087B0200087B0200087B0200081C
:1000D0007B0200087B020008595200087B020008DE
:1000E000F10400087B0200087B0200087B02000884
:1000F0007B0200087B0200087B0200087B020008EC
:100100007B0200087B0200087B0200087B020008DB
:100110007B0200087B02000889480008A948000803
:100120007B0200087B0200087B0200087B020008BB
:100130007B0200087B0200087B0200087B020008AB
:100140007B0200087B0200087B0200087B0200089B
:100150007B0200087B0200087B0200087B0200088B
:100160007B0200087B0200087B0200087B0200087B
:100170007B0200087B0200087B02000800000000F0
:100180007B0200087B02000800F002F800F03EF855
:100190000AA090E8000C82448344AAF10107DA45E2
:1001A00001D100F033F8AFF2090EBAE80F0013F0F6
:1001B000010F18BFFB1A43F001031847946D0000AC
:1001C000B46D0000103A24BF78C878C1FAD852073D
:1001D00024BF30C830C144BF04680C6070470000C1
:1001E0000023002400250026103A28BF78C1FBD840
:1001F000520728BF30C148BF0B6070471FB506F0DB
:1002000066FA00F0DAF81FBD10B510BD00F01CF959
:100210001146FFF7F3FF05F033F800F03AF903B4A5
:10022000FFF7F2FF03BC00F03DF900000B49D1F8E5
:1002300000C04A685CF8043B1068184442F8040B9C
:100240008C4528BFA1F1DC0C8A4228BFA1F1DC0259
:10025000C1F800C04A6020F000407047EC00002068
:100260000948804709480047FEE7FEE7FEE7FEE74A
:10027000FEE7FEE7FEE7FEE7FEE7FEE70448054986
:10028000054A064B704700006948000889010008CC
:10029000D00F0020D0150020D0110020D011002058
:1002A00053EA020C00F069802DE9F04B4FF0000694
:1002B000002B1FBFB3FA83F503FA05F424FA05F601
:1002C0005E4012BF1643B2FA82F502FA05F4C5F198
:1002D00020051EBF22FA05FC44EA0C04203556EA2C
:1002E000044C4FEA144418BF641C4FF000084FF050
:1002F0000009904271EB030C39D3002919BFB1FA00
:1003000081F701FA07F6B0FA80F700FA07F6C7F1AD
:1003100020071EBF20FA07FC46EA0C062037B6FB72
:10032000F4FCA7EB0507103F07F01F0BCBF12006ED
:100330002CFA06F60CFA0BFB44BFB3460026202F1E
:10034000A4BF5E464FF0000B5BEA060C08BF4FF0FF
:10035000010B19EB0B0948EB0608ABFB027C06FB13
:1003600002CC0BFB03CCC01B71EB0C01C1E70B46AD
:10037000024641464846BDE8F08B13B5084318BF16
:100380004FF0FF300146AFF30080BDE81C407047DE
:100390000B4910B5A1F17C020A4CC2E93712372192
:1003A00006E000EB104342F82130074B00FB03400E
:1003B0000B1EA1F10101F4DC10BD0120E8E70000F3
:1003C0008C000020E119D666CD0D01004FF000022F
:1003D00000B5134694469646203922BFA0E80C503B
:1003E000A0E80C50B1F12001BFF4F7AF090728BF16
:1003F000A0E80C5048BF0CC05DF804EB890028BF92
:1004000040F8042B08BF704748BF20F8022B11F0BA
:10041000804F18BF00F8012B704770477047704736
:1004200010B500F009F8006810BD10B5044600F0E2
:1004300003F8046010BD000000487047F40000207D
:1004400000487047F40000207546FFF7F9FFAE46FC
:1004500005006946534620F00700854618B020B5D0
:10046000FFF70CFFBDE820404FF000064FF00007FB
:100470004FF000084FF0000BAC46ACE8C009ACE808
:10048000C009ACE8C009ACE8C00921F007018D46FD
:10049000704710B50446AFF300802046BDE8104019
:1004A000FFF7BDBE01491820ABBEFEE726000200E3
:1004B000704700000021C5F20401086840F0040202
:1004C00040F2E010C2F200000A6000F01FBC000021
:1004D000FEE7000040F24420C2F2000001F0CAB87A
:1004E00040F28C20C2F2000001F0C4B87047000056
:1004F0004FF4005001F0E2B9EFF3108072B600BF84
:10050000FEE700009FED1C1AB5EE400A20EE011A2E
:10051000BDEEC12A12EE100AF1EE10FAB8BF013892
:1005200000EE100AB8EEC00A9FED142A31EE400A20
:1005300020EE020ABDEEC01A11EE100A6FF35F2022
:1005400046F24C71C0F6000101EE100A01EB800189
:10055000B8EE411A30EE410A91ED001A91ED012AF0
:10056000B7EE003A33EE403A20EE020A23EE011ACB
:1005700031EE000A704700BF83F9223E00000044BC
:100580002DE9F04F85B0804618469B469246894635
:1005900005F0D2FC41EC100B9FEDB91B05F0BEF944
:1005A00051EC100B9FEDB80B53EC102B06F01FF81D
:1005B000002818BF0BF1010BD8F80000BAF1020FA8
:1005C000C9F80000C0F25981ABF1010000EBD07016
:1005D0004FEA600EAAF10100CAF101010391BAF1DC
:1005E000020F00F00101009104900DD1012000994B
:1005F000002900F04281704580F2E080460006F15B
:10060000010B0021EEE000BF20F001000290A8F1F4
:1006100010009FED9F0A01900023012011E000BF10
:10062000B0EE401A02EE105AB8EEC22A81EE021A5B
:1006300009EB81010233023081ED001A02998B42ED
:10064000D5D0704504DA4500691C002614E000BFCF
:10065000039900EB0E0501EB400655455946ACBF2A
:10066000AAEB0601A0EB0E06049AA8BF1546AE42FF
:1006700002DDB0EE401A3CE0AC1B621C12F003023B
:100680001AD008EB860797ED001A012A06F1010738
:1006900015D008EB870797ED002A022A31EE021ADF
:1006A00006F102070BD008EB870292ED002AF71C37
:1006B00031EE021A03E000BFB0EE401A3746032CB9
:1006C00017D3EA1B561C019A02EB870797ED042A01
:1006D00097ED053A97ED064A31EE021A97ED075A63
:1006E00031EE031A31EE041A103731EE051A043ECA
:1006F000ECD102EE101AB8EEC22A81EE021A411CA9
:1007000009EB8002714582ED001A05DA4FEA410CCF
:100710000CF10105002611E0039A01EB0E0C02EB2F
:100720004106D4455D46ACBFAAEB0605A1EB0E061B
:10073000049AA8BF944666453FF772AFACEB060437
:10074000621C12F0030219D008EB860797ED001A1D
:10075000012A06F1010714D008EB870797ED002A5C
:10076000022A31EE021A06F102070AD008EB8702CC
:1007700092ED002AF71C31EE021A02E0B0EE401AA8
:100780003746032CFFF44EAFACEB0702561C019A20
:1007900002EB870797ED042A97ED053A97ED064A95
:1007A00031EE021A97ED075A31EE031A31EE041AB0
:1007B000103731EE051A043EECD133E7039900EB14
:1007C0000E0201EB40015245ACBFAAEB010BA0EBBE
:1007D0000E01049EB8BF1646B14203DD9FED2C0A00
:1007E00041E000BF721A531C13F003030AD008EB58
:1007F000810797ED000A012B01F1010706D1394667
:1008000017E000BF9FED220A13E000BF08EB870747
:1008100097ED001A022B30EE010A01F1020301D11B
:10082000194606E008EB830393ED001A033130EE1E
:10083000010A032A17D3721A08EB81010132103919
:1008400091ED041A91ED052A91ED063A30EE010A78
:1008500091ED074A30EE020A30EE030A103130EE15
:10086000040A043AECD101EE10BAB8EEC11A80EED7
:10087000010A09EB800080ED000A05B000F00AB81B
:100880000000000000000040000000000000000028
:100890000000000030BCBDE8C08F000070470000C1
:1008A000704700007047000070470000704700006C
:1008B00070B582B090F85020012A03D10221084679
:1008C00002B070BD002340F2083201930093C5F2DC
:1008D00004020368A2F54274A3422FD14FF6006EC2
:1008E0004FF60055CFF6FF7ECFF6FF7552F80E405B
:1008F000535923435B0721D4D1F800C01368BCF1DE
:10090000000F23F4604425D04B6890F8306043EA30
:10091000463323431360535952F80E606FF0FF05BE
:10092000555933432B43DB0726D1136840F61F7616
:100930008968B343194341EA0C011AE0416D41F063
:10094000200141650121002280F85020084602B0B4
:1009500070BD00BF1460515952F80E306FF0FF06A1
:10096000965919433143C90708D1116840F61F73DE
:10097000994311600021E6E70021E4E70021E2E766
:10098000F0B581B00022009290F85020012A03D1E6
:100990000221084601B0F0BD0123076880F85030FD
:1009A000BB685B0700F19C804B68052B07D8023BB6
:1009B000032B9ABFCFA454F8233006234B60C3F314
:1009C000012207EB82020C68156B03F01F031F2640
:1009D0009E4025EA0606C4F3846505FA03F3334313
:1009E0001363BA68BB6802F0040203F00803D2186C
:1009F00040F091800A688B68C2F3406607EB860678
:100A00007569C2F3045207249440A54303FA02F225
:100A10002A437261D1E9043CFC68042B66D13A6E2A
:100A20003A6E0B68C2F3846293FAA3F6C3F3846C44
:100A30006FF3DF43B6FA86F5002B2C464FF6FF7EA8
:100A400008BF6446A242C0F2070E0CD13A6E22F0F3
:100A500000423A660A6802EA0E03C2F3846C92FA14
:100A6000A2F2B2FA82F57A6E7A6E002BC2F3846239
:100A70002C4608BF6446A2420CD17A6E22F0004296
:100A80007A660A6802EA0E03C2F3846C92FAA2F252
:100A9000B2FA82F5BA6EBA6E002BC2F384622C46AB
:100AA00008BF6446A2420CD1BA6E22F00042BA6678
:100AB0000A6802EA0E03C2F3846C92FAA2F2B2FA56
:100AC00082F5FA6EFA6E002BC2F3846208BF6546A7
:100AD000AA4220D1FA6E22F00042FA661BE000BF63
:100AE000416D41F0200141650121FCE006220E68C4
:100AF00007EB830302EA94021D6E4FF200040CFA26
:100B000002F2C0F2FF3406F0F846254032432A4391
:100B100042F000421A66BA68D20750D10C68CA681F
:100B2000D7F8B06023466FF3DF4326EA030C4FF695
:100B3000FF7602F01805C0F20706EE4000252640B9
:100B4000C4F27F0546EA0C06AA42C7F8B06036D167
:100B500093B194FAA4F2B2FA82F2013202F01E03C7
:100B6000092B02F01F0310D801229A4003EB430324
:100B700042EA035315E000BF012202EB946202F047
:100B80001E030A2B02F01F03EED3012200269A4017
:100B900003EB4303CFF6206606EB03531A4342F000
:100BA0000073C3F3406607EB86068A687569C3F372
:100BB000045307249C40A5439A402A437261096864
:100BC0000022C8F2080211422ED040F2083CC5F2C1
:100BD000040CDCF800300022CCF25272914203F097
:100BE000E07408BF13F4000220D00022CCF6843257
:100BF000914208BF13F0807256D00122C8F2000261
:100C000091424FF0000108BF13F480026BD1ACF5A4
:100C10004272974267D1DCF8001021F0E071214365
:100C200041F480014FE000BF00215CE040F200226F
:100C300047F40071C5F20402914249D1DCF800107A
:100C400042F6635221F0E071214341F40001CCF8F7
:100C5000001040F20801C2F200010968C0F23E52E1
:100C60008909A1FB0212910901EB41010C2202EB5F
:100C700081010091009969B30099013900910099AF
:100C800061B3009901390091009949B30099013984
:100C90000091009931B30099013900910099002920
:100CA0004FF00001E8D11EE040F2002247F400714D
:100CB000C5F2040291420FD1DCF8001021F0E0717E
:100CC000214341F08071CCF8001000210BE000BFFF
:100CD000002108E0002106E0002104E0002102E0FC
:100CE000002100E00021002280F85020084601B0D9
:100CF000F0BD00BF0C000000120000001800000052
:100D00000001000070470000704700002DE9F04727
:100D1000056840F20008C5F204082E68D5F804A062
:100D2000D8F808730446B0070FD51AF002000CD0AB
:100D3000606DC00603D4606D40F4006060652046BD
:100D4000FFF7ACFD256802202860700707F01F0937
:100D500002D51AF0040004D130074BD51AF0080070
:100D600048D0204650F8542FD20603D4026842F4EB
:100D700000720260EA6812F4406F35D108F58072A3
:100D800095422A4608BF42461346B9F1090F08BFEB
:100D90002B46B9F1050F08BF2B46B9F1000F08BF6C
:100DA0002B46AA4208BF1346DA6892041CD42A686C
:100DB000120719D5AA6852070CD46A6822F00C02EF
:100DC0006A60016821F4807101600168C90407D577
:100DD0000AE000BF606D40F01000606504F158004B
:100DE000016841F0010101602046FFF78BFF256893
:100DF0000C202860B00602D51AF0200004D170063D
:100E00002DD51AF040002AD0204650F8542FD20693
:100E100003D4026842F40052026008F58073294648
:100E2000EF6CEA689D4208BF41460B46B9F1070FD7
:100E300008BF2B46B9F1060F08BF2B46B9F1000FCA
:100E400008BF2B46A94208BF0B46DB6817F0C00F4E
:100E50006AD02046FFF724FD256860202860300610
:100E60000CD51AF0800009D0606D40F480306065C8
:100E7000204600F099F9256880202860F0050DD5FE
:100E80001AF480700AD0606D40F40030606520462E
:100E9000FFF70AFD25684FF480702860B0050DD576
:100EA0001AF400700AD0606D40F48020606520461E
:100EB000FFF7FCFC25684FF400702860F0061AD597
:100EC0001AF0100017D0606B38B1B9F1000F4DD097
:100ED000D8F8080310F4604F0BD0606D40F48060C8
:100EE0006065A06D40F00200A0652046FFF70CFF92
:100EF000256810202860700558BFBDE8F0871AF4F7
:100F000080600FD0606D4FF4806140F48040606578
:100F1000A06D40F00800A06520462960BDE8F047BC
:100F2000FFF7C0BCBDE8F087990106D502F4406127
:100F300003F4005289187FF48CAF296849067FF5C5
:100F400088AF13F400117FF484AFA968090711D4A6
:100F5000696821F060016960016821F480510160D5
:100F60000168C9053FF575AF0AE000BFE868C00732
:100F7000B3D1BEE7606D40F01000606504F1580029
:100F8000016841F00101016063E70000B0B582B083
:100F90000446002001904CB1606D58B1216888680A
:100FA000800012D48868C00019D54CE0012002B03E
:100FB000B0BD00BF204600F0F9F80020A06584F81D
:100FC0005000216888688000ECD588684FF6C072B0
:100FD000C5F6FF72104088608868C00033D44FF6B1
:100FE000C0728868C5F6FF7202F18052104000F1AD
:100FF0008050886040F20800C2F20000006842F6AB
:1010000063528009C0F23E52A0FB02029009022204
:1010100002EB400001900198A8B100BF019801388F
:101020000190019878B1019801380190019850B170
:10103000019801380190019828B101980138019078
:1010400001980028EAD18868C00009D4606D40F09A
:1010500010006065A06D40F00100A065012000E077
:1010600000208A68636D02F0040203F01003D218B6
:10107000626D40F07F8022F48172023262658A687C
:10108000D20720D140F2083C4FF600534FF60062E1
:10109000C5F2040CCFF6FF73CFF6FF725CF803E0E5
:1010A0005CF802206FF0FF035CF8033042EA0E02A6
:1010B0001A43D20707D16268DCF8003023F47C13AE
:1010C0001A43CCF80020627E636B43EA4232D4E9D3
:1010D00002C31A4394F8203042EA0C02012B42EA80
:1010E000034207D1D4F824C00023CFF6FE7303EBEC
:1010F0004C431A43A36A33B1D4F82CC003F4707381
:1011000043EA0C031A43D1F80CC04CF20703CFF6A4
:10111000F07303EA0C031A43CA608A688B6802F012
:10112000040203F00803D2182DD194F83030227E47
:101130005B0094F838C043EA823ECB6844F2020276
:1011400023EA020242EA0E02CA600A69BCF1010FF8
:1011500016D140F2FD7322EA030CD4E90F32D4E930
:1011600011E543EA0C031A4342EA0E022A4342F015
:10117000010207E042F010010120616502B0B0BD3C
:1011800022F001020A6122690B6B012A23F00F028F
:1011900002D1E369013B1A430A63616D012262F3E4
:1011A0000101616502B0B0BD7047000080B586B036
:1011B00000680022C5F204020021904205910491CA
:1011C00002D006B080BD00BF41F24C00C4F2020064
:1011D000026842F400520260026802F40052009277
:1011E000009A026842F004020260006800F0040005
:1011F00000900098012001900B20CDE9020140F6FB
:101200000000C4F6000001A900F064FB12200021D8
:10121000002200F0C5FC122000F0AEFC06B080BD3C
:10122000B0B50023C7F6FF73194205D04FF0010C8B
:101230004FF0010E07E000BF11F47F4F26D04FF0B2
:10124000010E4FF0000C01234FEAF204032C06D8E4
:10125000DFE804F01202080EBCF1000F0CD00120F0
:10126000B0BD00BFBEF1000F1CBF0120B0BD03E048
:10127000002B1CBF0120B0BD00684161816821F0D6
:101280001801114381600020B0BD00BF0B0607D4D8
:101290004B06CBD04FF0000C4FF0000E0023D3E7ED
:1012A00001234FF0000C4FF0000ECDE710B5A8B1B0
:1012B0000446407F20B900202077204600F032F815
:1012C00002206077207958B1D4E902122046FFF756
:1012D000A7FF00281CBF012010BD0BE0012010BD9E
:1012E000206841F6B751C0F2C1414161816821F0E7
:1012F000180181606079002814BF20694FF0FF3029
:101300002168D4E905230861886820F06000104353
:101310008860886820F0800018438860012060772A
:10132000002010BD81B0006843F20001C4F2020148
:10133000884201D001B0704741F24800C4F2020077
:10134000016841F480510160006800F48050009011
:10135000009801B07047000070470000F0B581B000
:101360000446407901284FF0020000F083800D46CA
:1013700001216171207128681646042840D100F0CF
:1013800097FB0746BEB100BF2068406BB0F1FF3F3E
:101390001CDC00F08DFBC01B0228F5D3206940F057
:1013A000080020610320207101B0F0BD00F080FB37
:1013B000C01B0228F2D22068406B0004F6D4012042
:1013C00000F066FAA9692068016405E0012000F0D8
:1013D0005FFAA96920684164816C06F0100240F24E
:1013E000FF3393409943D5E907379340194381640C
:1013F000C16CFF239340994307FA02F21143C16481
:101400002969206801290BD1826B06F010011F2386
:101410006F698B409A4307FA01F31A43826301E034
:1014200006F01001C26B07238B409A43D5E90037C1
:10143000D5E9026533432B438B401A43C2634FF413
:10144000804203688A4023EA02020260026840F692
:10145000FC738B409A4307FA01F31A430260C022DF
:10146000036802FA01F123EA010101600120207101
:101470000020607101B0F0BD7047000010B5016838
:1014800004460868800444BF486B5FEA804019D472
:101490000868800046BF486B5FEA800010BD0420EA
:1014A0002071206940F0020020614FF00050486335
:1014B000086820F0805220460A60BDE81040FFF71F
:1014C0004BBF00BF04202071206940F00100206163
:1014D0004FF400504863086820F4805008602046AC
:1014E000FFF7CAFF2168D3E7002804BF0120704737
:1014F00010B50446007920B900206071204600F044
:1015000007F802202071002001212061217110BD07
:1015100080B586B0006847F20042C4F200020021A4
:1015200090420591049101D006B080BD41F24C007B
:10153000C4F20200C26842F00052C260C26802F007
:1015400000520092009A026842F0010202600068B4
:1015500000F0010000900098302001900320CDE9B8
:10156000020101A94FF0904000F0B4F936200021AB
:10157000002200F015FB362000F0FEFA06B080BD18
:1015800010B54279012A4FF002021FD002710268A1
:1015900001F0100E4FF0010C14680CFA0EF3234307
:1015A0001360136831B103F47011B1F5802F09D1C4
:1015B000022104E003F03C01042903D10121536816
:1015C000194351600121002201714271104610BD82
:1015D000014690F82500022818D10868D1E910C307
:1015E000026822F00E020260026822F0010202602C
:1015F00003F01C00012202FA00F0CCF804000020E5
:1016000081F82520002281F8242070470420C86337
:101610000120002281F824207047000080B590F856
:101620002510022922D10168D0F838E0D0E910C392
:101630000A68BEF1000F22F00E020A600A6822F06A
:1016400001020A6003F01C014FF0010202FA01F1ED
:10165000CCF804104FF0000180F8252080F8241009
:1016600001D0F0470021084680BD00BF0421C163BE
:10167000012080BDB0B5D0E910C30268DCF80010CD
:1016800003F01C030424D2F800E09C400C4218BF75
:101690001EF0040522D102249C400C4218BF1EF00B
:1016A000020529D1D940090724D51EF0080108BF39
:1016B000B0BD116821F00E011160012101FA03F2A1
:1016C000CCF80420C16380F82510416B002280F81B
:1016D000242079B1BDE8B040084700BF11688906F1
:1016E00003D4116821F004011160CCF80440016BAF
:1016F0000029EFD1B0BD00BF1168890606D411687A
:1017000021F00A011160012180F82510CCF8044075
:10171000C16A0022002980F82420DBD1EAE700001A
:10172000002804BF012070472DE9F04740F2000C6B
:10173000C4F2020C02684FF6F8310CF5816ECBF65C
:10174000FD71724538BF01F580614CF6CD431144FF
:10175000CCF6CC43A1FB03136FF003010CF58067BB
:1017600001EA93084FF00203D0E9024AD0F8109042
:101770003CBF0027C4F20207C0E9107880F825308A
:10178000136847F6F077BB43D0E9057143EA0A03D3
:1017900043EA0903D0E907653B4319433143294331
:1017A0002143B4F5804F116015D04FF4956408F0D3
:1017B0001C010F23724538BFA8245CF804208B401D
:1017C0009A434CF8042042685CF8043002FA01F1B4
:1017D00019434CF8041000210122C16380F8252030
:1017E00080F82410BDE8F04708467047F0B590F83F
:1017F00024C0BCF1010F36D04FF0010E80F824E078
:1018000090F825C0BCF1010F2AD14FF0020C80F8EE
:1018100025C04FF0000CC0F83CC0D0F800C0846870
:10182000056B066CDCF80070102C27F00107CCF873
:101830000070406C00F01C000EFA00F0706008466A
:10184000CCF8043004BF10460A46CCF80800CCF8A7
:101850000C20DCF800004DB140F00E000EE000BF9F
:10186000002180F824100220F0BD00BF20F0040009
:10187000CCF80000DCF8000040F00A00CCF80000D2
:10188000DCF8000040F00100CCF800000020F0BDC2
:10189000B0B5044600F00CF9054640F20000C2F273
:1018A00000000078611C18BF044400BF00F000F97C
:1018B000401BA042FAD3B0BD7047000040F2144173
:1018C000C4F201010A68024214BF08607047FFF7C2
:1018D000F3BF00002DE9F04F82B00D68002D00F03D
:1018E000DB8041F6000400F13847C4F6000407220B
:1018F0004FEAB726A04208BF0622062E38BF4FEA9D
:10190000B7224FF0000B0027002600920AE000BF2C
:101910000D68013635FA06F207F102070BF1040BE8
:1019200000F0BA80012202FA06FE15EA0E08EFD096
:10193000D1F8049009F0030AAAF10105022D15D28D
:101940000323826803FA07F5CB68AA43BB401A4316
:1019500082604268C9F3001322EA0E02B3404FEAE4
:10196000460CEC431A43426017E000BFBAF1030F84
:101970000ED1C56AC9F3C00225EA0E05B2402A435A
:101980004FF0030AC2620AFA07F2D443BC4625E0CC
:10199000032202FA07F5EC43BC46C2688B6822407A
:1019A00003FA0CF31A43BAF1020FC26016D16FF0BA
:1019B000030202EA560202440BF01C050F23D2F880
:1019C00020E003FA05F90B692EEA090EAB4043EA61
:1019D0000E031362D1F8049009F0030A02680AFAB0
:1019E0000CF322401A4319F4403F026090D041F2B8
:1019F0006003C4F202031A6840F2004E42F0010292
:101A00001A601A68C4F2010E02F001020192019AF2
:101A100026F003024FF608497244CFF6FF7952F8D8
:101A200009C00BF00C050F23009CAB402CEA03030C
:101A300004FA05F52B4342F80930DEF808204B681C
:101A400042EA080540F20C4CDC0258BF22EA0805C5
:101A5000CEF80850C4F2010CDCF800209C0242EAE7
:101A6000080558BF22EA0805CCF80050DEF804202B
:101A70009C0342EA080558BF22EA0805CEF8045044
:101A8000DEF80020DB0342EA080558BF22EA080519
:101A9000CEF800503CE700BF02B000F000B830BC08
:101AA000BDE8C08F1823002A08BF2823C150704703
:101AB00040F6C870C2F200000068704740F20000B3
:101AC00040F6C871C2F20000C2F2000100780A6854
:101AD000104408607047000080B5032000F08CF8C7
:101AE0000F2000F009F800281CBF012080BD00F085
:101AF00029F8002080BD000070B540F20006C2F257
:101B000000063178E1B1044640F20800C2F200005C
:101B10004FF47A720068B2FBF1F1B0FBF1F001F022
:101B200091FA0F2C4FF0010508D838B94FF0FF306B
:101B300021460022002500F033F87460284670BD6D
:101B4000012070BD82B041F25800C4F202008168E9
:101B500041F001018160816801F001010191019969
:101B6000016841F080510160006800F080500090F1
:101B7000009802B070470000002848BF7047C1B20B
:101B800000F01F00012202FA00F04EF20012CEF225
:101B9000000242EAD10121F0030108607047000011
:101BA00010B54EF60C5CCEF2000CDCF80030C3F33E
:101BB000022E8EF00704042C28BF0424BEF1030378
:101BC0004FF0FF3E0EFA04F438BF0023A1439940C2
:101BD0000EFA03F39A43114300F00F0200F1604341
:101BE0000901043A03F564436244002848BF02F146
:101BF0000C03197010BD00004EF60C51CEF200011E
:101C00000A684FF6FF031A4060F30A2242F0806030
:101C100040F0FD700860704747F20001C4F2000117
:101C20000A68B0F5007F02F4C06031D1B0F5007FE2
:101C30002CD00868012262F34A20086040F20800B4
:101C4000C2F200000068322250434DF68362C4F2B3
:101C50001B32A0FB0202900C4A69520511D5421CAE
:101C60000FD04A6952050CD558B14A69520508D5BA
:101C7000012806D04A69520503D50228A0F10400C4
:101C8000EAD14869400544BF0320704700207047EF
:101C9000B0F5806FFAD00868022262F34A2008602B
:101CA0000020704747F20000C4F20000006800F412
:101CB000C060704747F20000C4F20000016841F4C0
:101CC000807101607047000041F20000C4F2020020
:101CD000016841F004010160704700002DE9F04700
:101CE00082B00446407841F288070007C4F2020738
:101CF00030D5606E4FEAB05103290BD8DFE801F010
:101D000002101C25201D002102F074FB064670B94C
:101D10001AE000BF01266078C0060BD51EE000BFA8
:101D200004F12000002102F01DFC064660B160783D
:101D3000C00613D4B2464EE057F87C1C41F4803103
:101D400047F87C1C01E000BF606E396821F4400157
:101D50000843386000266078C006EBD5A06E4FEAD5
:101D6000306003280AD8B246DFE800F002102216DD
:101D7000201D002102F03EFB0DE000BF4FF0010AE4
:101D80004FF00108A07880070DD528E004F120006D
:101D9000002102F0E7FB8246BAF1000FD04612D0D4
:101DA000A07880071BD4C2462168C80768D088E0A5
:101DB00057F87C0CB24640F4803047F87C0CBAF1FE
:101DC000000FD046ECD13868A16E20F04070084377
:101DD0004FF0000A3860B046A0788007E3D557F886
:101DE000300C10F080590BD157F8300C40F0805077
:101DF00047F8300C57F8300C00F0805001900198F3
:101E000047F20005C4F20005286840F4807028609D
:101E1000FFF74EFE064600BF2868C00508D4FFF74E
:101E200047FE801B0228F7D94FF0030A22E000BFCB
:101E3000BAF1000F1ED1B86810F4407012D0D4F877
:101E4000841088420BD0B868B96820F4407041F41F
:101E50008031B960B96821F48031B960B860C007D9
:101E600040F01C81B868D4F8841020F44070084316
:101E7000C246B860B9F1000F1AD02168C80720D156
:101E8000880726D448072CD4080732D4C80638D48B
:101E900088063ED4880544D448054AD4480650D420
:101EA000080656D4C8055CD4880462D473E000BF29
:101EB00057F8300C20F0805047F8300C2168C807E4
:101EC000DED03868A26B20F003001043386088072A
:101ED000D8D53868E26B20F00C0010433860480712
:101EE000D2D53868226C20F03000104338600807E3
:101EF000CCD53868626C20F0C00010433860C8064A
:101F0000C6D53868A26C20F440701043386088064B
:101F1000C0D53868E26C20F4406010433860880512
:101F2000BAD53868E26D20F4402010433860480587
:101F3000B4D53868226E20F440101043386048064B
:101F4000AED53868226D20F4405010433860080642
:101F5000A8D53868626D20F4404010433860C80549
:101F6000A2D53868A26D20F4403010433860880450
:101F700011D53A68E06E22F040620243B0F1806F02
:101F80003A601DD0B0F1006F05D157F87C0C40F4D9
:101F9000801047F87C0C080326D53A68206F22F0A1
:101FA00040620243B0F1806F3A6015D0B0F1006F2B
:101FB0001AD157F87C0C40F4801047F87C0C13E0E1
:101FC000201D012102F016FA2168002818BF824660
:101FD0000803E2D408E000BF201D012102F00AFA44
:101FE0002168002818BF8246480311D53A68606FFF
:101FF00022F040620243B0F1806F3A601CD0B0F131
:10200000006F05D157F87C0C40F4801047F87C0C29
:10201000480425D53968A06F21F040510143B0F143
:10202000005F396014D0B0F1805F19D1201D02210A
:1020300002F0E0F911E000BF201D012102F0DAF901
:102040002168002818BF82464804E3D408E000BF96
:1020500004F12000022102F085FA002818BF824610
:102060002068010406D4C0030CD4504602B0BDE879
:10207000F08700BF3968E26F21F080411143396079
:10208000C003F2D53868D4F8801020F0004008432F
:102090003860504602B0BDE8F08700BFFFF708FD8A
:1020A000064641F288354FF0030A00BFB868800742
:1020B0003FF5D8AEFFF7FCFC801BA842F6D9D9E665
:1020C0002DE9F04381B000286BD042F20008C4F241
:1020D00002080446D8F800000D4600F007008842C8
:1020E0000CD2D8F8000020F007002843C8F8000000
:1020F000D8F8000000F00700A84252D1206841F251
:10210000080910F00201C4F202090DD0A268D9F842
:10211000003003F0F0039A4206D9D9F8003023F0DA
:10212000F0031A43C9F80020C2072DD169B1A16894
:10213000D9F8002002F0F002914206D2D9F800202E
:1021400022F0F0021143C9F80010D8F8001001F095
:102150000701A9420CD9D8F8001021F00701294342
:10216000C8F80010D8F8001001F00701A94218D1F2
:1021700041071BD4000723D4D9F80000D9F8041074
:1021800010F00C002CD131E0606800285ED00228ED
:1021900000F07E80032840F0818059F8081C8901F6
:1021A00058D4012001B0BDE8F08300BFD9F8001079
:1021B000E26821F4E0611143C9F800100007DBD5A3
:1021C000D9F80000216920F4605040EAC100C9F844
:1021D0000000D9F80000D9F8041010F00C0005D068
:1021E0000C2829D101F00301012925D159F8081C37
:1021F000090703D4D9F88C10090A02E059F8081C21
:10220000090946F20C7201F00F01C0F6000252F803
:10221000211000280A4618BF00220C2871D1D9F8D5
:10222000040000F00300022846D0032804BF41F256
:102230000021C0F27A0143E0042857D008285BD17E
:1022400041F20022C0F27A025BE000BF59F8081C9C
:102250008907A6D5D9F8001021F003010843C9F871
:102260000000FFF725FC064641F28837D9F8000048
:10227000616800F00C00B0EB810F15D0FFF718FC7F
:10228000801BB842F2D9032001B0BDE8F08300BF43
:1022900059F8081C89037FF584AFDBE759F8081C5F
:1022A00049057FF57EAFD5E7206800F002010029DF
:1022B0007FF43DAF49E700BF42F20041C0F2F401B4
:1022C000D9F80400D9F80420C0F30210C2F30622A2
:1022D0005143D9F804200130B1FBF0F0C2F3416161
:1022E000022202EB4101B0FBF1F20AE042F20042AD
:1022F000C0F2F40205E000BF002200210C283FF4E8
:102300008EAFD9F8000046F2F261C0F30310C0F6B8
:102310000001085C00F01F0022FA00F140F2040006
:10232000C2F2000040F208020068C2F2000211602E
:1023300001B0BDE8F043FFF7DFBB000040F208004A
:1023400041F20801C2F20000C4F20201006809680B
:1023500046F20272C1F30221C0F60002515C01F0A4
:102360001F01C8407047000040F2080041F2080118
:10237000C2F20000C4F202010068096846F202726B
:10238000C1F3C221C0F60002515C01F01F01C84038
:102390007047000041F20C01C4F2020151F8040C34
:1023A00010F00C02086805D00C2A29D100F00300B7
:1023B000012825D151F80C0C000703D4D1F888006E
:1023C000000A02E051F80C0C000946F20C7300F010
:1023D0000F00C0F6000353F82030002A184618BF3B
:1023E00000200C2A18BF7047086800F0030002287C
:1023F00010D0032804BF41F20023C0F27A030DE09D
:10240000042A1FD0082A23D141F20020C0F27A000A
:10241000704700BF42F20043C0F2F40308680A6844
:10242000C0F30210C2F30622096801305A43B2FB1E
:10243000F0F0C1F34161022202EB4101B0FBF1F087
:10244000704700BF42F20040C0F2F400704700BF86
:1024500000200023C5E700002DE9F04383B00028E9
:1024600000F0068341F200060446C4F20206B0689A
:10247000F168227800F00C09D00601F003081DD4A1
:102480002078C00700F08180B9F1080F76D0B9F14B
:102490000C0F08BFB8F1030F70D06068B0F5803F33
:1024A00007D0B0F5A02F40F01982306840F48020AA
:1024B0003060306840F4803030601AE2B9F1000FCB
:1024C0001ED0B9F10C0F08BFB8F1010F18D0A169E7
:1024D0003068002900F0AE8140F001003060FFF765
:1024E000E7FA05463068800700F1B681FFF7E0FAA9
:1024F000401B02284FF00300F4D903B0BDE8F0837D
:102500003068800703D5A069002800F0B182256AF1
:102510003068000700F11E81D6F89400000900F031
:10252000F000854200F21C813068B9F1000F40F0E4
:1025300008003060306820F0F00040EA05003060AC
:102540007068E16920F47F4040EA0120706040F04B
:102550007D82B06DC00000F11982B06D40F08050F6
:10256000B065B06D00F0805002900298FFF79AFBC2
:10257000B16D21F08051B1650AE200BF306880037F
:1025800003D56068002800F07382207880072DD57D
:10259000B9F1040F1CD0B9F10C0F08BFB8F1020F4C
:1025A00016D0E1683068002900F0B28140F48070F4
:1025B0003060FFF77DFA0546306840050FD4FFF71D
:1025C00077FA401B02284FF00300F5D995E700BFCA
:1025D0003068400503D5E068002800F04982706843
:1025E000216920F0F85040EA01607060207800070F
:1025F0005ED42078400771D4A06A002800F0E282FF
:10260000022840F0DF80F068E16A00F003028A42AD
:1026100040F0F080226B6FF00F0300F0700103EBCD
:102620000212914240F0E680616B00F4FE42B2EB90
:10263000012F40F0DF80A16B00F40032073918BF92
:1026400001218A4240F0D680E26B0023CFF6E0738E
:1026500003EA025200F4C001A2F50012914240F0D8
:10266000C980216C4FF07E4202EA016100F0C06037
:1026700001F17E41884240F0BD803068800100F168
:10268000A182306840F080703060F06840F0807067
:10269000F060FFF70DFA04463068800100F1928285
:1026A000FFF706FA001B02284FF00300F4D924E7D5
:1026B0006169D6F8940000296ED040F00100C6F898
:1026C0009400FFF7F5F90546D6F89400800790D4FA
:1026D000FFF7EEF9401B0228F6D9FBE0B06D10F0D1
:1026E000805808D1B06D40F08050B065B06D00F0FA
:1026F00080500090009847F20007C4F20007386845
:10270000C00513D4386840F480703860FFF7D0F902
:10271000054600BF3868C00508D4FFF7C9F9401B5B
:1027200002284FF00300F5D9E7E600BFA0680128B2
:1027300008D0052840F0B080D6F8900040F00400A2
:10274000C6F89000D6F8900040F00100C6F890005E
:10275000B1E000BF306800F0F00085427FF6E4AEE3
:10276000B06DC00000F18A80B06D40F08050B0655F
:10277000B06D00F0805001900198FFF793FAB16DB1
:1027800021F08051B165B0F5007F00F07D80802D93
:1027900040F2D0800320D8E020F00100C6F8940079
:1027A000FFF786F9054600BFD6F8940080077FF54D
:1027B00020AFFFF77DF9401B02284FF00300F3D94B
:1027C0009BE600BFB9F10C0F00F05281306820F099
:1027D00080703060FFF76CF9044600BF30688001FC
:1027E00040F1E480FFF764F9001B02284FF003007A
:1027F000F4D982E6B9F10C0F00F03A81306840015B
:102800005CBF30685FEAC00000F13281306820F0C0
:1028100080703060FFF74CF905463068800140F168
:102820008F81FFF745F9401B02284FF00300F4D9D0
:1028300063E600BF20F001003060FFF739F905467C
:10284000306880077FF51CAEFFF732F9401B022885
:102850004FF00300F4D950E6306840F008003060D3
:102860003068D4E9072120F0F00008433060706838
:1028700020F47F4040EA0220706001E6FFF712FA80
:10288000B0F5007F7FF483AF812D5DD30120A02DB3
:1028900088BF022059E000BFD6F89010002821F030
:1028A0000101C6F89010D6F8901021F00401C6F886
:1028B000901000F08780FFF7FBF8054641F288375B
:1028C000D6F89000800700F18F80FFF7F1F8401BE9
:1028D000B842F5D9032003B0BDE8F0833168002881
:1028E00021F480313160316821F48021316000F0C1
:1028F0008580FFF7DDF80546306880033FF545AE7B
:10290000FFF7D6F8401B64284FF00300F4D9F4E534
:1029100020F480703060FFF7CBF805463068400542
:102920007FF564AEFFF7C4F8401B02284FF00300A8
:10293000F4D9E2E5A5F17000B0FA80F04009802DED
:1029400008BF022001E000BF002042F20001C4F2F3
:1029500002010A6822F0070202440A60096801F0D5
:102960000701814240F08480306840F00800306008
:102970003068D4E9072120F0F00008433060706827
:1029800020F47F4040EA022070605FE0FFF78AF9A0
:10299000B0F5007F06D1812D40D30120A02D88BF46
:1029A000022045E0802D3BD9032041E0F0684FF63E
:1029B000FC71CFF6EE610840F060002003B0BDE886
:1029C000F08300BFFFF774F8054641F28837D6F868
:1029D0009000800708D5FFF76BF8401BB8424FF016
:1029E0000300F4D989E500BFB8F1000F7FF404AE0D
:1029F000B06D20F08050B065FEE500BFFFF758F8DD
:102A00000546306880037FF5C0ADFFF751F8401BE5
:102A100064284FF00300F4D96FE500BF002007E001
:102A2000A5F17000B0FA80F04009802D08BF0220A7
:102A300042F20001C4F202010A6822F007020244D5
:102A40000A60096801F00701814211D1B068F1689C
:102A500010F00C0005D00C282AD101F00301012947
:102A600026D13168090707D4D6F89410090A05E081
:102A7000012003B0BDE8F0833168090946F20C7209
:102A800001F00F01C0F6000252F8211000280A469A
:102A900018BF00220C2837D1F06800F0030002288C
:102AA00010D0032804BF41F20021C0F27A010DE0EA
:102AB00004281FD0082823D141F20022C0F27A0254
:102AC00022E000BF42F20041C0F2F401F068F26877
:102AD000C0F30210C2F306225143F2680130B1FB89
:102AE000F0F0C2F34161022202EB4101B0FBF1F2CE
:102AF0000AE000BF42F20042C0F2F40204E000BF6C
:102B0000002200210C28C7D0B06846F2F261C0F361
:102B10000310C0F60001085C00F01F0022FA00F16B
:102B200040F20400C2F2000040F208020068C2F263
:102B300000021160FEF7E0FF00287FF4DEAC9FE4A6
:102B4000F06848F28C01CFF69D1104F12C0700EAE1
:102B5000010C8ECFD4E90F546FF00F0040F2000E3D
:102B600000EB0210CFF6E07E41EA0C010EEA0555BB
:102B70004FF07E420843A5F5001502EA046240EAE0
:102B8000032002F17E420EF5F014284304EA473791
:102B900010433843F060306840F080703060F06877
:102BA00040F08070F060FEF783FF044630688001DB
:102BB00008D4FEF77DFF001B02284FF00300F5D973
:102BC0009BE400BF002003B0BDE8F083B0B5E8B1DE
:102BD0000446407920B900202071204600F030F8EA
:102BE000022060712068016841F0040101604068C2
:102BF00040060DD4FEF75CFF2168496849070BD4F5
:102C0000012060710020A060B0BD00BF0120B0BDF8
:102C1000042060710120B0BD054602E04068400715
:102C2000EED5FEF745FF411B20680329F6D3416826
:102C30004907F3D5042060710220A0600120B0BDD7
:102C400081B0006840F60001C5F20601884201D05B
:102C500001B0704741F24C00C4F20200016841F437
:102C600080210160006800F480200090009801B08D
:102C700070470000B0B5002856D0044690F82100F7
:102C800028B9002084F82000204600F055F80220E2
:102C900084F821002168CA20486253204862C8682D
:102CA000400613D44FF0FF30C860FEF701FF2168E3
:102CB000CA6852060AD40546FEF7FAFE401BB0F574
:102CC0007A7F33D82168C8684006F5D588684FF602
:102CD000BF72CFF68F7210408860D4E9010CD4E93E
:102CE00003531843A3698A681843104388600D6131
:102CF000086940EA0C400861204601F0D7FC002832
:102D000018BFB0BD20686169E269C36C114323F04C
:102D10000303C364C36C1943C164FF2141620120F2
:102D200084F821000020B0BD0120B0BD032084F84C
:102D300021002168C968B0BD10B5A2B0044668463C
:102D400004308021FDF742FB206842F60001C4F206
:102D50000001884202D022B010BD00BF4FF4003005
:102D600000904FF4807021906846FEF7B7FF00286E
:102D700018BFFDF7C1FB41F29000C4F202000168E8
:102D800041F40041016022B010BD00002DE9F04186
:102D9000044690F8200001284FF0020008BFBDE86B
:102DA000F081012384F8203084F8210032B1487882
:102DB000CA788E78000240EA024841E048784FF035
:102DC000CD0CC20642BF00F0EF000A304870CA784E
:102DD0004FF0010EA2F10A03DFB207FB0CF7FD0A68
:102DE00005EB8505A3EB45038E780EEBD727092A63
:102DF00088BF43EA0712A0F10A03DFB207FB0CF712
:102E0000FD0A05EB8505A3EB45030EEBD725092845
:102E100088BF43EA0510C0B2D2B2000240EA0248BD
:102E2000A6F10A00C2B202FB0CF2D30A03EB830341
:102E3000A0EB43000EEBD222092E88BF40EA021617
:102E40000F782168CA20486253204862C86840064B
:102E500014D44FF0FF30C860FEF72AFE2168CA681C
:102E600052060BD4054600BFFEF722FE401BB0F50C
:102E70007A7F21D82168C8684006F5D5F0B240EACB
:102E800008007A0320F0C00010434860204601F09B
:102E90000DFC2168FF224A6220B1002184F8201035
:102EA000BDE8F081012084F821000020002184F891
:102EB0002010BDE8F08100BF032084F821002168C4
:102EC000CA68FF224A62002184F82010BDE8F08120
:102ED0002DE9F04381B0044690F8200001284FF01E
:102EE000020000F0AB800D46012184F8201084F828
:102EF00021002168CA20486253204862C8681646EB
:102F0000400614D44FF0FF30C860FEF7D1FD2168B1
:102F1000CA6852060BD40746FEF7CAFDC01BB0F5BF
:102F20007A7F00F281802168C8684006F4D58868FD
:102F300000F0400036B158B94FF0000C85F803C0DE
:102F400009E000BF70B94FF0000C85F803C00CE039
:102F5000E8784FEA805C6B782878AA781B0243EA0D
:102F6000004340E0E8784FEA805C2B784FF0CD0ECC
:102F7000A3F10A085FFA88F000FB0EF0C60A06EB20
:102F800086066F78A8EB46064FF00108AA7808EB92
:102F9000D020092B88BF46EA00135FFA83F9A7F116
:102FA0000A03DEB206FB0EF6F00A00EB8000A3EB8C
:102FB000400008EBD623092F88BF40EA0317F8B278
:102FC000000240EA0943A2F10A00C6B206FB0EF76E
:102FD000FE0A06EB8606A0EB460008EBD727092A77
:102FE00088BF40EA0712D0B2184347F67F7240EA22
:102FF0000C00C0F27F0210400860886820F4802036
:103000008860D5E903028B68104318438860204626
:1030100001F04CFB2168FF224A6260B9012084F86C
:103020002100002007E000BF032084F82100216870
:10303000CA68FF224A62002184F8201001B0BDE86E
:10304000F0830000411E0020B0EB116F1CBF012077
:1030500070474EF21002CEF2000251604EF623513C
:10306000CEF20001F0230B700721906011607047D1
:1030700070470000704700007047000010B590F8DE
:103080003C20012A4FF0020255D080F83D20026812
:1030900043F2004C5368D2F808E0C4F2010C6245D8
:1030A00005D042F60044C4F20104A24203D14C68A8
:1030B00023F4700323430C6823F07003234340F68A
:1030C000FF34C4F20004A242536011DD43F2FF3327
:1030D000C4F201039A421BDC40F60043C4F2000331
:1030E0009A421DD042F60043C4F201030DE000BF36
:1030F000B2F1804F14D040F20043C4F200039A4270
:103100000ED040F60003C4F200039A4208D00CE04F
:1031100044F20003C4F201039A4201D0624504D193
:1031200089682EF08003194391600121002280F804
:103130003D1080F83C20104610BD0000002804BF60
:103140000120704710B5044690F83D0028B90020D2
:1031500084F83C00204600F023F8022084F83D006B
:103160002068211D01F0A6FB012084F8480084F8A6
:103170003E0084F83F0084F8400084F8410084F861
:10318000420084F8430084F8440084F8450084F841
:10319000460084F8470084F83D00002010BD000080
:1031A00080B582B0006800F140404FEAB0200528A9
:1031B00029D8DFE800F0031B28282B4341F25800F0
:1031C000C4F202000168002241F0010101600068C0
:1031D000002100F00100019001981C20FEF7E0FCA6
:1031E0001C2002B0BDE88040FEF7C6BC41F258008A
:1031F000C4F20200016841F002010160006800F0C1
:1032000002000190019802B080BD00BF41F2580059
:10321000C4F202000168002241F010010160006860
:10322000002100F01000019001983620FEF7B8FC54
:10323000362002B0BDE88040FEF79EBC41F2580047
:10324000C4F202000168002241F020010160006820
:10325000002100F02000019001983720FEF7A0FC2B
:10326000372002B0BDE88040FEF786BC80B590F8FC
:103270003C20012A4FF0020200F0C28080F83D207D
:10328000D0F800C08822DCF80830CFF6FE721A4071
:10329000CCF808200B684F2B28DC1F2B44DD202B9B
:1032A00045D0302B43D0402B40F0AC80D1F804E027
:1032B000C968DCF82030DCF8202022F00102CCF8CC
:1032C0002020DCF8182022F0F00242EA011123F05D
:1032D0000A0242EA0E02CCF81810CCF82020DCF8E2
:1032E000081041F0470121F0300180E06F2B27DD0D
:1032F000B3F5005F48D0B3F5805F7AD0702B40F013
:103300008180D1E901E3C968DCF8082043EA0E03B3
:1033100022F47F4243EA01211143CCF80810DCF883
:10332000081041F0770162E00BB1102B6AD1DCF894
:10333000081021F07001194341F0070157E000BF68
:10334000502B35D0602B5DD1D1F804E0C968DCF892
:10335000203023F01003CCF82030DCF81830DCF8F3
:10336000202023F4704322F0A00243EA013142EA14
:103370000E12CCF81810CCF82020DCF8081041F020
:10338000670121F0100132E0D1E901E3C968DCF8FE
:10339000082043EA0E0322F47F4243EA012111434D
:1033A000CCF80810DCF8081041F480411FE000BFA1
:1033B000D1F804E0C968DCF82030DCF8202022F0E5
:1033C0000102CCF82020DCF8182022F0F00242EABA
:1033D000011123F00A0242EA0E02CCF81810CCF8D0
:1033E0002020DCF8081041F0570121F02001CCF832
:1033F00008100022012180F83D10002180F83C10C7
:10340000104680BD0122F5E77047000010B5016845
:1034100004460869800744BFC8685FEA80703FD4EB
:103420000869400744BFC8685FEA407044D408692F
:10343000000744BFC8685FEA00704BD40869C00643
:1034400044BFC8685FEAC06050D40869C0071CBFA9
:10345000C8685FEAC07057D10869000644BFC868F1
:103460005FEA006058D40869C00544BFC8685FEAD5
:10347000006059D40869400644BFC8685FEA4060EC
:103480005AD40869800646BFC8685FEA806010BDEC
:103490006FF0200220460A61BDE81040FFF7ECBD46
:1034A0006FF00200086101202077886980074BD007
:1034B0002046FFF7A9FF4DE06FF0040008610220ED
:1034C0002077886910F4407F48D02046FFF79CFFA2
:1034D0004AE000BF6FF00800086104202077C86947
:1034E000800745D02046FFF78FFF47E06FF01000C0
:1034F000086108202077C86910F4407F42D0204638
:10350000FFF782FF44E000BF6FF001000861204632
:1035100000F08CFA21689FE76FF080000861204678
:10352000FFF7A8FD21689EE76FF4807008612046D0
:10353000FFF79EFD21689DE76FF04000086120467F
:1035400000F076FA21689CE7204600F067F82046F4
:1035500000F06AFA21680020207761E7204600F039
:103560005DF8204600F060FA2168002020775EE7D1
:10357000204600F053F8204600F056FA216800205B
:1035800020775BE7204600F049F8204600F04CFA2F
:1035900021680020207758E780B586B0006840F2A7
:1035A0000041C4F2000188424FF000010591CDE9CD
:1035B0000311CDE9011113D0B0F1804F2BD141F2AD
:1035C0004C00C4F20200016841F001010160006892
:1035D000022100F001000090009801200FE000BFE0
:1035E00041F24C00C4F20200016841F001010160A7
:1035F0000068802100F001000090009802200191F5
:10360000022102910021CDE90311059001A94FF09B
:103610009040FEF75FF906B080BD000070470000E3
:103620002DE9F04190F83C30012B04BF0220BDE8A9
:10363000F0814FEAB202052A00F27281DFE812F04F
:1036400006005000A400F8003401780103681A6AEB
:10365000A3F1804622F001021A621D6A1A465C68D4
:1036600052F818CF8F68A6F59636D1F800E025F00D
:1036700002054FEAB626072E45EA07050AD80127B4
:10368000B74017F0E50F1FBFCF6825F00C0527F0F6
:1036900004073D43072E0BD8012707FA06F616F05C
:1036A000E50F1FBF24F44074D1E9056734433C4360
:1036B0004FF68C76CFF6FE760CEA060747EA0E0741
:1036C0005C609F614F6809695F631D629F6947F095
:1036D00008079F619F6927F004079F6165E100BFAC
:1036E000036843F200461A6AC4F2010622F010028F
:1036F0001A621D6A1A46D3F804C052F8188FB342F2
:103700008E68D1F800E025F0200545EA061505D0C1
:1037100042F60046C4F20106B34207D1CE686FF00C
:10372000400725F0C00507EA06163543A3F1804699
:10373000A6F596364FEAB626072E0CD8012707FACB
:1037400006F616F0E50F1FBFD1E905672CF44064BB
:10375000374344EA870C48F6FF44CFF6FF6404EA97
:10376000080444EA0E27C3F804C09F614F68096942
:103770009F631D629F6947F400679F619F6927F4FB
:1037800080679F6110E100BF036843F200461A6A38
:10379000C4F2010622F480721A621D6A1A46D3F836
:1037A00004C052F81CEFB3428E68D1F8008025F4B3
:1037B000007545EA062505D042F60046C4F201062A
:1037C000B34207D1CE6840F2FF47360225F4406588
:1037D000BE433543A3F18046A6F596364FEAB6269A
:1037E000072E0CD8012707FA06F616F0E50F1FBFC3
:1037F000D1E905672CF44054374344EA071C4FF6DF
:103800008C74CFF6FE740EEA040747EA0807C3F883
:1038100004C0DF614F680969DF631D62DF6947F03B
:103820000807DF61DF6927F00407DF61BDE000BF43
:1038300003681A6AA3F1804722F480521A621A467A
:10384000A7F59637D3F820805D6852F81CCFD1F8E1
:1038500000E08E684FEAB727072F09D80124BC4043
:1038600014F0E50F1EBF4C6925F4804545EA841528
:1038700028F4005444EA063448F6FF46CFF6FF66C3
:103880000CEA060747EA0E275D60DF614F680969A9
:103890001F641C62DF6947F40067DF61DF6927F49A
:1038A0008067DF6180E000BF03681A6AA3F1804788
:1038B00022F480321A621A46A7F59637D3F8208090
:1038C0005D6852F854EFD1F800C08E684FEAB72710
:1038D000072F09D80124BC4014F0E50F1EBF4C6926
:1038E00025F4803545EA042528F4003444EA0644EA
:1038F0004FF68C76CFF6FE7603360EEA060747EAD9
:103900000C075D605F654F6809699F651C625F6DAC
:1039100047F008075F655F6D27F004075F6544E0C7
:103920000121002280F83C200846BDE8F08100BF5C
:1039300003681A6AA3F1804722F480121A621A46B9
:10394000A7F59637D3F820805D6852F854EFD1F888
:1039500000C08E684FEAB727072F09D80124BC4062
:1039600014F0E50F1EBF4C6925F4802545EA842537
:1039700028F4001444EA065448F6FF46CFF6FF66E2
:1039800006F540760EEA060747EA0C275D605F659C
:103990004F680969DF651C625F6D47F400675F650A
:1039A0005F6D27F480675F65090213681943116032
:1039B0000021002280F83C200846BDE8F08100008C
:1039C000002804BF0120704710B5044690F83D0060
:1039D00028B9002084F83C00204600F023F802209B
:1039E00084F83D002068211D00F064FF012084F868
:1039F000480084F83E0084F83F0084F8400084F8D2
:103A0000410084F8420084F8430084F8440084F8BC
:103A1000450084F8460084F8470084F83D00002003
:103A200010BD0000704700007047000070470000A4
:103A300070470000704700007047000070470000AA
:103A4000B0B501680446C8690D6840F62F028B685E
:103A50000240202A05F0200E0AD1BEF1000F07D047
:103A6000616E00293CD02046BDE8B040084700BF49
:103A700040F60F02104209D040F22012C0F200427C
:103A800003F0010C2A4012EB0C0215D1226E012A20
:103A900005D110F0100218BF15F0100222D1C20299
:103AA00014D513F4800211D04FF4801220460A621C
:103AB000BDE8B040FFF7C0BFC20718BF15F4807261
:103AC00040F08C81820700F193819CE1010640F176
:103AD000958015F0800100F09180A16E0029C2D17F
:103AE000B0BD00BF102008628868400600F1BC80AD
:103AF000B4F85800B4F85A10B4F85A20002A18BF85
:103B00008842EDD0401A216851E8001F226821F454
:103B1000907142E80013DBB1216851E8001F226870
:103B200021F4907142E8001393B1216851E8001F1D
:103B3000226821F4907142E800134BB1216851E8EA
:103B4000001F226821F4907142E80013002BDAD1A3
:103B5000216851E8021F226821F0010142E80213A6
:103B6000DBB1216851E8021F226821F0010142E81F
:103B7000021393B1216851E8021F226821F001016C
:103B800042E802134BB1216851E8021F226821F07C
:103B9000010142E80213002BDAD12021E167002164
:103BA00021666166216851E8001F226821F010013A
:103BB00042E80013002B00F00B81216851E8001F40
:103BC000226821F0100142E80013002B00F0008170
:103BD000216851E8001F226821F0100142E800131B
:103BE000002B00F0F580216851E8001F226821F0C9
:103BF000100142E80013002BD4D1E9E040067FF524
:103C00006FAF15F0400008BFB0BD00BF206850E89E
:103C1000000F216820F0400041E80002DAB120687E
:103C200050E8000F216820F0400041E8000292B106
:103C3000206850E8000F216820F0400041E80002B1
:103C40004AB1206850E8000F216820F0400041E8A8
:103C50000002002ADAD120200021A0672046A166B8
:103C6000BDE8B04000F0BCBB206F01684A6893B269
:103C7000002B3FF435AFB4F858008342BFF430AFA7
:103C8000A4F85A200968890600F19F80206850E84E
:103C9000000F216820F4807041E80002DAB120684A
:103CA00050E8000F216820F4807041E8000292B1D2
:103CB000206850E8000F216820F4807041E800027D
:103CC0004AB1206850E8000F216820F4807041E874
:103CD0000002002ADAD1206850E8020F216820F0A3
:103CE000010041E80202C2B3206850E8020F2168D7
:103CF00020F0010041E802027AB3206850E8020F88
:103D0000216820F0010041E8020232B3206850E847
:103D1000020F216820F0010041E80202002ADAD1F6
:103D20001BE000BF206850E8020F216820F040002F
:103D300041E80202DAB1206850E8020F216820F061
:103D4000400041E8020292B1206850E8020F216869
:103D500020F0400041E802024AB1206850E8020F1A
:103D6000216820F0400041E80202002ADAD1202038
:103D7000E06700202066206850E8000F216820F0EE
:103D8000100041E80002DAB1206850E8000F216815
:103D900020F0100041E8000292B1206850E8000FC6
:103DA000216820F0100041E800024AB1206850E884
:103DB000000F216820F0100041E80002002ADAD14B
:103DC000206FFDF705FCB4F85800B4F85A10401AFB
:103DD00081B22046BDE8B040FFF72CBE01220A6246
:103DE000D4F8802042F00102C4F8802082070AD56E
:103DF000BCF1000F07D002220A62D4F8802042F002
:103E00000402C4F8802042070AD5BCF1000F07D095
:103E100004220A62D4F8802042F00202C4F8802012
:103E200002070DD54EEA0C02B2FA82F2520907D10E
:103E300008220A62D4F8802042F00802C4F88020E8
:103E400002050BD515F0806208D04FF400620A62BB
:103E5000D4F8802042F02002C4F88020D4F88020DA
:103E6000002A3FF43DAE10F0200018BFBEF1000F55
:103E700040F0C880D4F88000896800F0280001F084
:103E80004001401806D12046FFF7D8FD0020C4F8B5
:103E90008000B0BD206850E8000F216820F49070C9
:103EA00041E80002BAB3206850E8000F216820F40E
:103EB000907041E8000272B3206850E8000F21685A
:103EC00020F4907041E800022AB3206850E8000F07
:103ED000216820F4907041E80002002ADAD11AE04B
:103EE000206850E8020F216820F0010041E802023A
:103EF000DAB1206850E8020F216820F0010041E8A3
:103F0000020292B1206850E8020F216820F00100FF
:103F100041E802024AB1206850E8020F216820F00F
:103F2000010041E80202002ADAD1206E012824D1E2
:103F3000206850E8000F216820F0100041E80002DE
:103F4000DAB1206850E8000F216820F0100041E845
:103F5000000292B1206850E8000F216820F01000A4
:103F600041E800024AB1206850E8000F216820F0C3
:103F7000100041E80002002ADAD12020E06700208A
:103F80002066216860668868400635D5206850E85C
:103F9000020F216820F0400041E80202DAB12068F7
:103FA00050E8020F216820F0400041E8020292B17F
:103FB000206850E8020F216820F0400041E802022A
:103FC0004AB1206850E8020F216820F0400041E823
:103FD0000202002ADAD1206F70B144F6DD21C0F66A
:103FE00000018163FDF71AFB00283FF479AD206FD3
:103FF000816BBDE8B04008472046BDE8B040FFF700
:104000001DBD00BF626E002A3FF434AF20469047CA
:1040100021682FE7B0B582B0A0B10446806F28B9FF
:10402000002084F87400204600F056F82420A06791
:104030002068016821F001010160204600F0D0FEF7
:10404000012803D1012002B0B0BD00BF606A10B1E9
:10405000204600F0CFFC2068416821F49041416087
:10406000816821F02A018160016841F0010101604D
:104070000020C4F88000FDF71BFD216805460A6892
:1040800012070CD56FF07E4C20464FF40011002231
:104090002B46CDF800C000F0D7FF78B9216808683A
:1040A00040070FD56FF07E4C20464FF48001002270
:1040B0002B46CDF800C000F0C7FF18B1032002B0B6
:1040C000B0BD00BF2020A067E0670020206684F814
:1040D000740002B0B0BD00002DE9F043A7B0044663
:1040E000684604308421FCF771F9206844F20041ED
:1040F000C4F20001884203D027B0BDE8F08300BFBE
:104100004FF002086846CDF80080FDF7E7FD002873
:1041100018BFFCF7F1F941F25800C4F2020001683F
:1041200041F24C0641F4003101600068C4F202061D
:1041300000F40030229022983068002740F00100FF
:104140003060306822A900F00100229022980C20F3
:10415000CDE9220803202590072026904FF09040BB
:104160002497FDF7B7FB40F24425A6F57E60C2F226
:1041700000054FF08009C5E900082846C5E9027727
:10418000C5E90497C5E906772F62FDF7C9FA00284B
:1041900018BFFCF7B1F92567AC6240F28C25A6F692
:1041A000CC70C2F200050221102285E88702284661
:1041B000C5E90577C5E90777FDF7B2FA002818BF0A
:1041C000FCF79AF9262000210022E566AC62FDF793
:1041D000E7FC2620FDF7D0FC27B0BDE8F083000007
:1041E000F0B581B00446C06F20280DD113460A46B1
:1041F00000294FF0010018BF002B01D101B0F0BD24
:1042000094F87400012803D1022001B0F0BD00BF72
:1042100001204FF0000C84F87400C4F860C02168DD
:1042200048F20005C4F20005A94202D0496809021B
:104230002AD422206265A4F85830C4F880C0E06710
:10424000206F00284AD044F66D41C0F6000144F6C4
:10425000C95544F6ED2600F12C0CC0F60005C0F659
:1042600000068CE862002168002724318763FDF78F
:10427000BDFA98B31020C4F88000202084F8747030
:10428000E067012001B0F0BD216851E8001F2568FA
:1042900041F0806145E800100028CAD0206850E84D
:1042A000000F216840F0806041E80005002DC0D07B
:1042B000206850E8000F216840F0806041E8000568
:1042C000002DB6D0206850E8000F216840F08060D3
:1042D00041E80005002DD7D1ABE700BF20690021E0
:1042E00084F8741030B300BF206850E8000F2168D4
:1042F00040F4807041E80002E2B1206850E8000F0D
:10430000216840F4807041E800029AB1206850E8CA
:10431000000F216840F4807041E8000252B120682B
:1043200050E8000F216840F4807041E80002002A44
:10433000DAD100BF206850E8020F216840F0010088
:1043400041E80202DAB3206850E8020F216840F029
:10435000010041E8020292B3206850E8020F216890
:1043600040F0010041E802024AB3206850E8020F21
:10437000216840F0010041E80202002ADAD11EE083
:10438000206850E8020F216840F0400041E8020236
:10439000FAB1206850E8020F216840F0400041E87F
:1043A0000202B2B1206850E8020F216840F04000DC
:1043B00041E80202002A4FF000003FF41FAF2068DE
:1043C00050E8020F216840F0400041E80202002A54
:1043D000D6D1002001B0F0BD70470000704700004A
:1043E00070470000FEE70000FEE70000FEE7000067
:1043F00070470000F0B581B041F20007C4F2020737
:10440000FA680D469107044614D0F868216800F058
:10441000030088424FF0010040F0A180002900F025
:104420009E80F8686168C0F302100130884232D182
:1044300034E000BF206803280CD0022816D00128E1
:1044400029D13968012211F0020182EA510116D105
:1044500020E000BF3968890310D43968012211F4C3
:10446000802182EA91410AD114E000BF396801221B
:1044700011F4806182EA912101D10BE00021FA68F8
:1044800063686FF00F0622F0730206EB03131A4302
:104490001043F86011B1012001B0F0BD386820F080
:1044A00080603860FDF704FB064600BF38680001F5
:1044B00006D5FDF7FDFA801B0228F7D946E000BFBC
:1044C000012D0FD005BB386948F2FF01CFF6FD7111
:1044D0000840D4E902120023CFF6FE7303EA423209
:1044E00020E000BF48F2FF013869CFF6FF112269D2
:1044F000002301F1B461CFF6E0730840A16803EA3C
:104500000252A2F500120DE0386948F2FF0162691B
:10451000CFF6FF114FF07E430840A16803EA026224
:1045200002F17E4240EA012010433861386840F0D1
:1045300080603860FDF7BCFA054600BF38680001AE
:1045400008D4FDF7B5FA401B0228F7D9032001B0C3
:10455000F0BD00BFA069396908433861002001B08F
:10456000F0BD0000F0B581B041F20007C4F20207CF
:10457000FA680D469107044614D0F868216800F0E7
:10458000030088424FF0010040F08D80002900F0C8
:104590008A80F8686168C0F302100130884219D13E
:1045A00036E000BF2068032818D002280AD001286E
:1045B00010D13968012211F0020182EA510108D0BC
:1045C00019E000BF3968012211F4806182EA91216B
:1045D00011D1E9B1012001B0F0BD00BF39688903F4
:1045E00008D43968012211F4802182EA9141F0D087
:1045F00001E000BF0021FA6863686FF00F0622F047
:10460000730206EB03131A431043F8600029E1D14B
:10461000386820F080503860FDF74AFA064600BF3F
:104620003868800006D5FDF743FA801B0228F7D9C9
:1046300030E000BF7969A0684FEA002065B148F218
:10464000FF02CFF6FF12114022694FF07E4303EACA
:10465000026202F17E420AE048F2FF02CFF6FD72EA
:104660001140E2680023CFF6FE7303EA42320843AA
:1046700010437861386840F080503860FDF718FAD0
:10468000054600BF3868800008D4FDF711FA401BCA
:104690000228F7D9032001B0F0BD00BF6069796935
:1046A00008437861002001B0F0BD000070B542F60B
:1046B0000806C4F200067168044621F080017160AA
:1046C0003168890616D42068C16821F0A001C16054
:1046D000FDF7EEF9054600BF2068C068800627D4C4
:1046E000FDF7E6F9401BB0F57A7FF5D9032084F891
:1046F000210070BD306820F0200030602068C16863
:1047000021F0A001C160FDF7D3F905462068C0681B
:1047100080060FD4FDF7CCF9401BB0F57A7FF5D9B0
:10472000032084F82100316841F02001316070BD20
:10473000002070BD0020316841F02001316070BD63
:104740007047000040F2DE1CC2F2000CBCF8001002
:1047500042F683524A43920D4FF4B47302FB131195
:1047600040F628238AB2C2F2000303EB820393EDE2
:10477000000A9FED121AB1EE042A20EE010A80EE23
:10478000020A47F2084340F28840C4F20003C2F232
:10479000000000EB8200BCEEC00A83ED000A90ED41
:1047A000000A481C20EE010A80EE020ABCEEC00A94
:1047B00083ED030AACF80000FDF780B900F07F45F7
:1047C00010B596B005A804302421FBF7FFFD0024A6
:1047D0004FF400700494CDE90244CDE90044FDF7A4
:1047E0001BFA28B1EFF3108072B600BFFEE700BFDE
:1047F000FDF760FA41F29000C4F20200016821F076
:104800001801016014206021059001200D91022102
:104810000790CDE90B04CDE90F10119020201290E4
:104820000720CDE9130105A81591FDF715FE28B164
:10483000EFF3108072B600BFFEE700BF0F200090BC
:10484000032001900020CDE9020004906846032176
:10485000FDF736FC20B1EFF3108072B6FEE700BF23
:10486000FDF732FA16B010BD4EF68850CEF20000B9
:10487000016841F4700101607047000040F2D420EB
:10488000C2F20000FEF7C2BD80B540F26C30C2F249
:104890000000FEF7BBFD40F26410C2F20000BDE86C
:1048A0008040FCF7EBBD000040F2B830C2F20000DF
:1048B000FEF7ACBD80B540F6FF330268C4F20003DA
:1048C00098422DDCB0F1804F3CD040F20043C4F25E
:1048D0000003984236D040F60003C4F20003984229
:1048E00030D042F6FF33C4F20103984234DD43F680
:1048F000FF73C4F2010398423EDD44F20003C4F2A8
:104900000103984252D044F60003C4F201039842D6
:104910004CD044F20043C4F20103984246D049E02F
:1049200040F60043C4F2000398420BD043F2004328
:10493000C4F20103984205D042F60043C4F20103D9
:104940009842CED14B6822F070021A4342F6FF33F0
:10495000C4F201039842CADC40F2FF73C4F20003C0
:10496000984217DCB0F1804F20D040F20043C4F2EF
:10497000000398421AD01DE042F60043C4F201033E
:10498000984213D043F20043C4F2010398420DD081
:1049900010E000BF40F60003C4F20003984205D0C7
:1049A00040F60043C4F20003984203D1CB6822F4DE
:1049B00040721A434B6922F0800E8A6843EA0E0364
:1049C000D1F800C00360C262A0F18042A2F5963225
:1049D0004FEAB222072AC0F828C007D8012303FAF9
:1049E00002F212F0E50F1CBF096901630121416168
:1049F00080BD000080B5416ACA070DD18A0716D470
:104A00004A071FD40A0728D4CA0631D48A063AD4E2
:104A10004A0658D542E000BF0268D0F828C0536863
:104A200023F4003343EA0C0353608A07E8D5026895
:104A3000D0F82CC0536823F4803343EA0C0353604E
:104A40004A07DFD50268D0F830C0536823F48023CA
:104A500043EA0C0353600A07D6D50268D0F834C085
:104A6000536823F4004343EA0C035360CA06CDD5D0
:104A70000268D0F838C0936823F4805343EA0C03EB
:104A800093608A06C4D50268D0F83CC0936823F4CA
:104A9000005343EA0C0393604A0614D50268D0F829
:104AA00040C05368BCF5801F23F4801343EA0C0315
:104AB000536008D1D2F804C0D0F844E02CF4C0030D
:104AC00043EA0E035360090658BF80BD0168806C3D
:104AD0004A6822F400221043486080BD806A0021A9
:104AE000A0F85A10A0F85210FEF7A8BF806A02681A
:104AF000836FD0F87CC0916809062DD5212B2BD16E
:104B00000021A0F8521000BF016851E8001F0268A0
:104B100021F0C00142E80013DBB1016851E8001F39
:104B2000026821F0C00142E8001393B1016851E826
:104B3000001F026821F0C00142E800134BB1016878
:104B400051E8001F026821F0C00142E80013002B69
:104B5000DAD12021816702689168490640F17E80A0
:104B6000BCF1220F7AD10021A0F85A10016851E857
:104B7000001F026821F4907142E80013BBB3016882
:104B800051E8001F026821F4907142E8001373B3EA
:104B9000016851E8001F026821F4907142E8001397
:104BA0002BB3016851E8001F026821F4907142E8BC
:104BB0000013002BDAD11AE0016851E8021F0268E5
:104BC00021F0010142E80213DBB1016851E8021F44
:104BD000026821F0010142E8021393B1016851E833
:104BE000021F026821F0010142E802134BB1016883
:104BF00051E8021F026821F0010142E80213002B74
:104C0000DAD1016E012924D1016851E8001F026840
:104C100021F0100142E80013DBB1016851E8001FE8
:104C2000026821F0100142E8001393B1016851E8D5
:104C3000001F026821F0100142E800134BB1016827
:104C400051E8001F026821F0100142E80013002B18
:104C5000DAD12021C167002101664166D0F88010B9
:104C600041F01001C0F88010FEF7E8BE0168806ACC
:104C70000968890600F19F800021A0F85A1000BF42
:104C8000016851E8001F026821F4807142E80013B6
:104C9000E3B1016851E8001F026821F4807142E825
:104CA00000139BB1016851E8001F026821F4807174
:104CB00042E8001353B1016851E8001F026821F473
:104CC000807142E80013002BDAD100BF016851E87F
:104CD000021F026821F0010142E80213BBB3016820
:104CE00051E8021F026821F0010142E8021373B388
:104CF000016851E8021F026821F0010142E8021335
:104D00002BB3016851E8021F026821F0010142E85B
:104D10000213002BDAD11AE0016851E8021F026881
:104D200021F0400142E80213DBB1016851E8021FA3
:104D3000026821F0400142E8021393B1016851E892
:104D4000021F026821F0400142E802134BB10168E2
:104D500051E8021F026821F0400142E80213002BD3
:104D6000DAD12021C167016E012924D1016851E8FF
:104D7000001F026821F0100142E80013DBB1016856
:104D800051E8001F026821F0100142E8001393B1BE
:104D9000016851E8001F026821F0100142E8001389
:104DA0004BB1016851E8001F026821F0100142E890
:104DB0000013002BDAD1016E012918BFFFF70CBBDD
:104DC000B0F85810FEF736BE806A016E012918BF90
:104DD000FFF704BBB0F858104908FEF72BBE0000DF
:104DE000B0B5054605F108041ECC0068194341EA38
:104DF0000403D5F81CE0046846F6F311CEF6FF7103
:104E00002140194341EA0E010160416848F2000C5B
:104E100021F4405111434160AA69C4F2000C60457D
:104E20001CBF296A0A438168102321F430611143B1
:104E3000816044F6FF71C4F20001884218DC44F23C
:104E40000041C4F20001884228D044F60001C4F2B7
:104E5000000188422AD044F60041C4F20001884291
:104E600042D141F28801C4F2020109688B0933E0A2
:104E700045F20001C4F2000188421FD0604525D0F0
:104E800043F60001C4F2010188422DD141F28801AC
:104E9000C4F202010B6868A222E000BF41F288015F
:104EA000C4F2020109688B0816E000BF41F28801D4
:104EB000C4F2020109680B090EE000BF41F288014B
:104EC000C4F2020109680B0A06E000BF41F2880142
:104ED000C4F2020109688B0A46F23C72C0F6000275
:104EE00003F0030152F82130604542F20040C0F265
:104EF000F40015D0BEF5004F22D1082B4FF0010170
:104F000000F29580DFE803F0065460935893939382
:104F10005E0000BFFDF712FA002855D14FE000BF38
:104F2000082B4FF0010100F28280DFE803F00580DA
:104F300023801B8080802100FDF700FAD0B914E0A7
:104F4000082B4FF0010100F27280DFE803F00553F7
:104F50005F70577070705D00FDF7F0F9002855D153
:104F60004FE000BFFDF716FA20B900215FE000BF57
:104F70004FF400406A6802EB420188424FF00101A1
:104F800055D31303984252D8010E000210EB520081
:104F900041F100010023FBF783F94FF60052A0F521
:104FA0004071C0F20F0291423BD301213FE000BFAC
:104FB000FDF7DAF940B902E0FDF7ECF920B900217C
:104FC00035E000BF4FF4004069684A0802EB40003A
:104FD000B0FBF1F04FF6EF72A0F11001914207D84B
:104FE0004FF6F0710140C0F34200084419E000BFE1
:104FF00001211CE0FDF7B8F940B902E0FDF7CAF95C
:1050000020B9002113E000BF4FF4004069684FF65B
:10501000EF7200EB5100B0FBF1F0A0F110019142F2
:1050200004D82968C860002101E000BF01210022E6
:1050300008466A66AA66B0BD0100000004000000D0
:1050400002000000080000002DE9F041044600685D
:105050001546C2690E461140891BB1FA81F1490912
:10506000A94240F0A080DDF81880B8F1000F29D0E7
:1050700018F1010140F08080C1693140891BB1FA0B
:1050800081F14909A94240F08E80C1693140891BF4
:10509000B1FA81F14909A94240F08580C1693140E6
:1050A000891BB1FA81F14909A9427CD1C16931401A
:1050B000891BB1FA81F14909A942DDD00020BDE880
:1050C000F08100BFFCF7F4FC206850E8000F216875
:1050D00020F4D07041E80002BAB3206850E8000F15
:1050E000216820F4D07041E8000272B3206850E8D3
:1050F000000F216820F4D07041E800022AB3206834
:1051000050E8000F216820F4D07041E80002002A26
:10511000DAD11AE0206850E8020F216820F001007F
:1051200041E80202DAB1206850E8020F216820F05D
:10513000010041E8020292B1206850E8020F2168A4
:1051400020F0010041E802024AB1206850E8020F55
:10515000216820F0010041E80202002ADAD1202073
:10516000A06704F17C0020210160002084F8740015
:105170000320BDE8F08100BF1F4600BFFCF798FC8C
:10518000C01B4045A0D820680168490744BFC169D9
:105190005FEA01510AD4C0693040801BB0FA80F048
:1051A0004009A842EAD00020BDE8F0814FF4006138
:1051B000016200BF206850E8000F216820F4D07021
:1051C00041E80002BAB3206850E8000F216820F4DB
:1051D000D07041E8000272B3206850E8000F2168E7
:1051E00020F4D07041E800022AB3206850E8000F94
:1051F000216820F4D07041E80002002ADAD11AE0D8
:10520000206850E8020F216820F0010041E8020206
:10521000DAB1206850E8020F216820F0010041E86F
:10522000020292B1206850E8020F216820F00100CC
:1052300041E802024AB1206850E8020F216820F0DC
:10524000010041E80202002ADAD12020A067E067CD
:1052500004F1800087E7000010B540F20444C2F278
:10526000000440F2C011C2F2000120460E22FEF7F7
:10527000B7FF2046BDE81040FEF7E2BBFEE70000A6
:10528000AAB040F62824C2F2000420464FF4B471BC
:1052900000F0D6FA40F28841C2F2000120464FF4F5
:1052A000B4723223FBF76CF9FCF716FCFFF788FAAF
:1052B00001AC04F120006821FBF788F84FF4882046
:1052C00001904FF080501F904FF080601E90102092
:1052D0000490072005904FF0887001264FF0020BD4
:1052E0004FF0040A08902046CDE90266CDF818B0C8
:1052F000CDF81CA0FCF7F2FC20B1EFF3108072B6E1
:10530000FEE700BF41F24C080027C4F20208CDE9D5
:105310000477D8F8000040F6000440F00400C8F814
:105320000000D8F80000C4F6000400F00400269045
:105330002698D8F800004FF4007140F00100C8F83A
:105340000000D8F80000002200F001002690269806
:1053500020464FF40079FCF7A5FB4FF090404FF446
:10536000F8510022FCF79EFB4FF4005001904FF4DF
:10537000881001ADCDE9020720462946FCF7AAFABC
:10538000CDF8049040F2000920462946C5F20409F0
:10539000CDE9026B0497FCF79DFA4FF4F85001A990
:1053A00081E841084FF0904029460497FCF792FAB3
:1053B000282000210022FCF7F3FB2820FCF7DCFB6F
:1053C00040F2E010C2F200004FF48071CDE927777F
:1053D000C0E90097C0E90277C0E9047A0183C66199
:1053E00080F82070C0E90A7780F83070476380F851
:1053F0003870FBF7CBFD28B1EFF3108072B600BF19
:10540000FEE700BF40F2E010C2F2000026A9269796
:10541000FBF74EFA20B1EFF3108072B6FEE700BF43
:105420000220C0F23040019006200290022003903A
:105430007F2004900420059040F2E0100025C2F285
:10544000000001A90695FBF79BFA28B1EFF3108045
:1054500072B600BFFEE700BF40F20044C4F2000491
:1054600040F26C3004F54061C2F200004CF24F3360
:1054700002953F2280E82600C3608561FDF75EFE4D
:1054800020B1EFF3108072B6FEE700BF40F26C303F
:105490000025C2F2000001A901950395FDF7EEFD7C
:1054A00020B1EFF3108072B6FEE700BF58F8040C8D
:1054B00044F2004740F0010048F8040C58F8040C8E
:1054C000002100F001000190019810200022C4F298
:1054D0000007FCF765FB1020FCF74EFB11200021B4
:1054E0000022FCF75DFB1120FCF746FB40F2044074
:1054F000C2F200004FF4E1310C22C0E90071C0E9B2
:105500000255C0E90452C0E90655C0E90855FEF746
:1055100081FD28B1EFF3108072B600BFFEE700BF37
:1055200040F2052040F25418C0F20100C2F2000817
:10553000269004F510514046002540F8481F7F2171
:10554000FF220395CDE90155C0E90151C0E90325CA
:10555000C0E90555C561FDF78DFB28B1EFF310805B
:1055600072B600BFFEE700BFADF804508DF80650DC
:10557000CDE9045508F1480501A928460122FDF7A7
:10558000A7FC28B1EFF3108072B600BFFEE700BFA2
:1055900026A928460122FDF7F9FB28B1EFF3108078
:1055A00072B600BFFEE700BF09F50230C8F8000080
:1055B0004046FDF70BFB18B1EFF3108072B6FEE723
:1055C00040F2D4200021C2F200004FF080423F237D
:1055D0004FF47A762991CDE927112491CDE906116E
:1055E000CDE90411C0E90023C0E90216016181611F
:1055F000FDF7A4FD20B1EFF3108072B6FEE700BF07
:105600004FF48050269040F2D420C2F2000026A928
:10561000FDF72CFE20B1EFF3108072B6FEE700BF5D
:1056200040F2D420C2F20000FEF7CAF920B1EFF335
:10563000108072B6FEE700BF40F2D4200025C2F20F
:10564000000023A923952595FDF718FD20B1EFF360
:10565000108072B6FEE700BF6020CDE9010540F280
:10566000D420C2F2000001A9042203950595FDF79C
:10567000D7FF18B1EFF3108072B6FEE740F2D420E6
:10568000C2F20000FDF788FF40F220300021C2F294
:105690000000102203232991CDE927112491CDE99F
:1056A0000611CDE90411C0E90042C0E9021301610D
:1056B0008161FDF743FD18B1EFF3108072B6FEE78C
:1056C0004FF48050269040F22030C2F2000026A90C
:1056D000FDF7CCFD20B1EFF3108072B6FEE700BFFE
:1056E00040F22030C2F20000FEF76AF920B1EFF379
:1056F000108072B6FEE700BF40F220300025C2F2F3
:10570000000023A923952595FDF7B8FC20B1EFF300
:10571000108072B6FEE700BF602001900220CDE944
:10572000020540F22030C2F2000001A904220595D2
:10573000FDF776FF20B1EFF3108072B6FEE700BFF1
:1057400040F22030C2F20000FDF726FF43F20001D4
:10575000C4F20201404640F8241F012141F2210217
:10576000082300258180C0E90223C0E905550162B4
:10577000FBF79CFD20B1EFF3108072B6FEE700BF8F
:1057800040F2B83004F58051C2F2000042F20F73CB
:10579000029541F6FF0280E82600C3608561FDF7AF
:1057A000CDFC18B1EFF3108072B6FEE740F2B830CE
:1057B0000024C2F2000001A901940394FDF75EFCED
:1057C00020B1EFF3108072B6FEE700BF07F540513D
:1057D000404640F8101FCDE90844CDE90644FBF7E8
:1057E00083FE18B1EFF3108072B6FEE7002008F1D7
:1057F00010050590CDE90300CDE9010001A9284677
:105800000022FBF7ABFD18B1EFF3108072B6FEE794
:1058100001A928461022FBF7A1FD18B1EFF3108073
:1058200072B6FEE73868002140F020003860284654
:10583000FBF7A6FE28461021FBF7A2FEFEE70000BC
:105840002DE9F04F81B02DED088B012951DB9FED43
:105850002C0B9FED2D8A9FED2D9A9FED2DBA894639
:1058600080460026B7EE08AA57EC10AB4FF0000BAD
:105870001FFA8BF000EE100AB8EE400A20EE080A7C
:1058800080EE090AFAF73EFE30EE0A0A10EE100A20
:1058900000F082FE05460C46FAF7C8FC47F29F412D
:1058A000C4F2781150FB01F10A1202EBD17140F2FF
:1058B000E93201FB1200A0F5FA7000EE100AB8EE12
:1058C000C00A80EE0B0A10EE100A00F065FE524688
:1058D0003B4600F0C1FB2A46234600F0E3F800F007
:1058E000AFF80BF1010B48F826001FFA8BF64E4576
:1058F000BEDBBDEC088B01B000F00CB800BF00BFF0
:105900000000000000002440DB0F49400000344349
:1059100000401C4630BCBDE8C08F000010B52DED26
:10592000040B86B09DED060B10EE100A10EE901AD7
:105930008DED000B002818BF0120084320F0004027
:10594000C0F17F6000F1E040C00F21D19DED080B58
:1059500010EE101A10EE900A8DED000B002918BF02
:105960000121084320F00040C0F17F6000F1E040D9
:10597000C00F0DD129490798B1EB400F04BF06981D
:10598000002842D00998400004BF089800283CD065
:105990009DED080B53EC102B9DED060B51EC100BFD
:1059A00000F052FCCDE902019DED020B40F2FF71C7
:1059B00010EE900A8DED000B31EA105021D00798BF
:1059C000039900F0004001F00041884219D09DED9C
:1059D000080B8DED040B9DED020B8DED000B10EE11
:1059E000900A059961F31E0005909DED041B9DED45
:1059F000020B51EC110B53EC102B00F0D3FCCDE952
:105A000002019DED020B0AB010BD0120FAF70DFD59
:105A10000AB0BDE8104000F003B800000000E0FF4D
:105A20009FED050B10B553EC102B51EC100B00F053
:105A3000EDF841EC100B10BD00000000000000006C
:105A400021F0004201F00043A2F16052B2F5801F44
:105A500028BFD2F17F6C0BD95FEA001C43EAC20277
:105A600042EB507018BF704728BF20F0010070470C
:105A7000B2F5801FBCBF184670474FEA410C1CF5B9
:105A8000001F02D2084600F02FBE70B500F08EFB5A
:105A900000000089FFF7F6BF4FF00040A0F580003E
:105AA0007047000010B591EA030F48BF83F0004330
:105AB00000F18C84841A71EB030C05D2121943EBAC
:105AC0000C03001B61EB0C014FEA1154A4EB135CB7
:105AD000DFF81CE11EEA430F18BF9EEA445F00F0A6
